{
  "contractName": "Fruitshop",
  "abi": [
    {
      "inputs": [],
      "payable": false,
      "stateMutability": "nonpayable",
      "type": "constructor"
    },
    {
      "constant": false,
      "inputs": [],
      "name": "buyApple",
      "outputs": [],
      "payable": true,
      "stateMutability": "payable",
      "type": "function"
    },
    {
      "constant": false,
      "inputs": [
        {
          "internalType": "uint256",
          "name": "_applePrice",
          "type": "uint256"
        }
      ],
      "name": "sellApple",
      "outputs": [],
      "payable": true,
      "stateMutability": "payable",
      "type": "function"
    },
    {
      "constant": true,
      "inputs": [],
      "name": "getMyApple",
      "outputs": [
        {
          "internalType": "uint256",
          "name": "",
          "type": "uint256"
        }
      ],
      "payable": false,
      "stateMutability": "view",
      "type": "function"
    }
  ],
  "bytecode": "0x608060405234801561001057600080fd5b5061023b806100206000396000f3fe6080604052600436106100345760003560e01c8063284131c714610039578063aacddd7c14610043578063db54b74c1461006e575b600080fd5b61004161009c565b005b34801561004f57600080fd5b506100586100ec565b6040518082815260200191505060405180910390f35b61009a6004803603602081101561008457600080fd5b8101908080359060200190929190505050610132565b005b6000803373ffffffffffffffffffffffffffffffffffffffff1673ffffffffffffffffffffffffffffffffffffffff16815260200190815260200160002060008154809291906001019190505550565b60008060003373ffffffffffffffffffffffffffffffffffffffff1673ffffffffffffffffffffffffffffffffffffffff16815260200190815260200160002054905090565b6000816000803373ffffffffffffffffffffffffffffffffffffffff1673ffffffffffffffffffffffffffffffffffffffff1681526020019081526020016000205402905060008060003373ffffffffffffffffffffffffffffffffffffffff1673ffffffffffffffffffffffffffffffffffffffff168152602001908152602001600020819055503373ffffffffffffffffffffffffffffffffffffffff166108fc829081150290604051600060405180830381858888f19350505050158015610201573d6000803e3d6000fd5b50505056fea265627a7a7231582056f41c782b3f0e810069ae1abf370a6a00aa83a6b426327cf75067c7446a327264736f6c63430005100032",
  "source": "// SPDX-License-Identifier: MIT\npragma solidity >=0.4.22 <0.9.0;\n  //1. 보낸 사람의 계정주소에서 사과를 총 몇개 가지고 있는가.\n  //2. 사과를 구매했을 시, 해당 계정주소에 사과를 추가해주는 코드를 작성\n  //3. 사과를 판매시 내가 가지고 있는 (사과 * 사과구매가격)만큼 토큰을 반환해주고, 사과를 0개로 바꿔준다.  \ncontract Fruitshop {\n  //사과를 몇개 가지고 있는가.\n  mapping(address=>uint) myApple;\n\n  \n  constructor() public {\n\n  }\n\n  function buyApple() payable public {\n    myApple[msg.sender]++;\n  //msg.sender요청한 사람의 주소값이 들어가있음\n  \n  }\n\n  function sellApple(uint _applePrice) payable public {\n    uint tatalPrice = myApple[msg.sender]*_applePrice;\n    myApple[msg.sender] = 0;\n    msg.sender.transfer(tatalPrice);//환불에 가깝다//얘는 비쥬얼스튜디오가 8이고 트러플은 5여서 문제가 일어나는 것임\n  }\n\n  function getMyApple() public view returns(uint){\n    return myApple[msg.sender];\n  }\n}\n\n\n//truffle --version",
  "sourcePath": "E:\\blockchain\\coding\\BLOCKCHAIN\\1014\\lecture1\\contracts\\Fruitshop.sol",
  "compiler": {
    "name": "solc",
    "version": "0.5.16+commit.9c3226ce.Emscripten.clang"
  },
  "schemaVersion": "3.4.3",
  "updatedAt": "2021-10-14T05:23:01.966Z",
  "networkType": "ethereum",
  "devdoc": {
    "methods": {}
  },
  "userdoc": {
    "methods": {}
  }
}